{
  "contractName": "Votazioni",
  "abi": [
    {
      "constant": false,
      "inputs": [
        {
          "name": "candidato",
          "type": "address"
        }
      ],
      "name": "votiByCandidato",
      "outputs": [
        {
          "name": "",
          "type": "address[]"
        }
      ],
      "payable": false,
      "stateMutability": "nonpayable",
      "type": "function"
    },
    {
      "constant": false,
      "inputs": [
        {
          "name": "candidato",
          "type": "address"
        }
      ],
      "name": "vota",
      "outputs": [],
      "payable": false,
      "stateMutability": "nonpayable",
      "type": "function"
    }
  ],
  "bytecode": "0x6060604052341561000f57600080fd5b6103b08061001e6000396000f30060606040526004361061004c576000357c0100000000000000000000000000000000000000000000000000000000900463ffffffff16806359073f281461005157806388e51539146100df575b600080fd5b341561005c57600080fd5b610088600480803573ffffffffffffffffffffffffffffffffffffffff16906020019091905050610118565b6040518080602001828103825283818151815260200191508051906020019060200280838360005b838110156100cb5780820151818401526020810190506100b0565b505050509050019250505060405180910390f35b34156100ea57600080fd5b610116600480803573ffffffffffffffffffffffffffffffffffffffff169060200190919050506101eb565b005b61012061031f565b600160008373ffffffffffffffffffffffffffffffffffffffff1673ffffffffffffffffffffffffffffffffffffffff1681526020019081526020016000208054806020026020016040519081016040528092919081815260200182805480156101df57602002820191906000526020600020905b8160009054906101000a900473ffffffffffffffffffffffffffffffffffffffff1673ffffffffffffffffffffffffffffffffffffffff1681526020019060010190808311610195575b50505050509050919050565b60008060003373ffffffffffffffffffffffffffffffffffffffff1673ffffffffffffffffffffffffffffffffffffffff1681526020019081526020016000205414151561023857600080fd5b60016000803373ffffffffffffffffffffffffffffffffffffffff1673ffffffffffffffffffffffffffffffffffffffff16815260200190815260200160002081905550600160008273ffffffffffffffffffffffffffffffffffffffff1673ffffffffffffffffffffffffffffffffffffffff16815260200190815260200160002080548060010182816102cd9190610333565b9160005260206000209001600033909190916101000a81548173ffffffffffffffffffffffffffffffffffffffff021916908373ffffffffffffffffffffffffffffffffffffffff1602179055505050565b602060405190810160405280600081525090565b81548183558181151161035a57818360005260206000209182019101610359919061035f565b5b505050565b61038191905b8082111561037d576000816000905550600101610365565b5090565b905600a165627a7a723058207f0dbcd5c09e1a14293c2243d33a173602a842f4f0ead99ad12877508e488bf50029",
  "source": "pragma solidity ^0.4.17;\n\ncontract Votazioni {\n\n    mapping(address => uint) votazioni;\n    mapping(address => address[]) candidati;\n\n    function vota(address candidato) public {\n        require(votazioni[msg.sender] == 0);\n        votazioni[msg.sender] = 1;\n        candidati[candidato].push(msg.sender);\n    }\n\n    function votiByCandidato(address candidato) public returns(address[]) {\n        return candidati[candidato];\n    }\n\n}\n",
  "sourcePath": "/Users/federico/Developer/tesina-sicurezza/client/contracts/Votazioni.sol",
  "compiler": {
    "name": "solc",
    "version": "0.4.18+commit.9cf6e910.Emscripten.clang"
  },
  "schemaVersion": "1.0.1",
  "updatedAt": "2018-02-15T08:19:31.194Z"
}